{
  "_format": "hh-sol-artifact-1",
  "contractName": "JuneNFT",
  "sourceName": "contracts/juneNFT.sol",
  "abi": [
    {
      "inputs": [],
      "stateMutability": "nonpayable",
      "type": "constructor"
    },
    {
      "inputs": [
        {
          "internalType": "address",
          "name": "sender",
          "type": "address"
        },
        {
          "internalType": "uint256",
          "name": "tokenId",
          "type": "uint256"
        },
        {
          "internalType": "address",
          "name": "owner",
          "type": "address"
        }
      ],
      "name": "ERC721IncorrectOwner",
      "type": "error"
    },
    {
      "inputs": [
        {
          "internalType": "address",
          "name": "operator",
          "type": "address"
        },
        {
          "internalType": "uint256",
          "name": "tokenId",
          "type": "uint256"
        }
      ],
      "name": "ERC721InsufficientApproval",
      "type": "error"
    },
    {
      "inputs": [
        {
          "internalType": "address",
          "name": "approver",
          "type": "address"
        }
      ],
      "name": "ERC721InvalidApprover",
      "type": "error"
    },
    {
      "inputs": [
        {
          "internalType": "address",
          "name": "operator",
          "type": "address"
        }
      ],
      "name": "ERC721InvalidOperator",
      "type": "error"
    },
    {
      "inputs": [
        {
          "internalType": "address",
          "name": "owner",
          "type": "address"
        }
      ],
      "name": "ERC721InvalidOwner",
      "type": "error"
    },
    {
      "inputs": [
        {
          "internalType": "address",
          "name": "receiver",
          "type": "address"
        }
      ],
      "name": "ERC721InvalidReceiver",
      "type": "error"
    },
    {
      "inputs": [
        {
          "internalType": "address",
          "name": "sender",
          "type": "address"
        }
      ],
      "name": "ERC721InvalidSender",
      "type": "error"
    },
    {
      "inputs": [
        {
          "internalType": "uint256",
          "name": "tokenId",
          "type": "uint256"
        }
      ],
      "name": "ERC721NonexistentToken",
      "type": "error"
    },
    {
      "anonymous": false,
      "inputs": [
        {
          "indexed": true,
          "internalType": "address",
          "name": "owner",
          "type": "address"
        },
        {
          "indexed": true,
          "internalType": "address",
          "name": "approved",
          "type": "address"
        },
        {
          "indexed": true,
          "internalType": "uint256",
          "name": "tokenId",
          "type": "uint256"
        }
      ],
      "name": "Approval",
      "type": "event"
    },
    {
      "anonymous": false,
      "inputs": [
        {
          "indexed": true,
          "internalType": "address",
          "name": "owner",
          "type": "address"
        },
        {
          "indexed": true,
          "internalType": "address",
          "name": "operator",
          "type": "address"
        },
        {
          "indexed": false,
          "internalType": "bool",
          "name": "approved",
          "type": "bool"
        }
      ],
      "name": "ApprovalForAll",
      "type": "event"
    },
    {
      "anonymous": false,
      "inputs": [
        {
          "indexed": false,
          "internalType": "uint256",
          "name": "_fromTokenId",
          "type": "uint256"
        },
        {
          "indexed": false,
          "internalType": "uint256",
          "name": "_toTokenId",
          "type": "uint256"
        }
      ],
      "name": "BatchMetadataUpdate",
      "type": "event"
    },
    {
      "anonymous": false,
      "inputs": [
        {
          "indexed": false,
          "internalType": "uint256",
          "name": "_tokenId",
          "type": "uint256"
        }
      ],
      "name": "MetadataUpdate",
      "type": "event"
    },
    {
      "anonymous": false,
      "inputs": [
        {
          "indexed": true,
          "internalType": "address",
          "name": "from",
          "type": "address"
        },
        {
          "indexed": true,
          "internalType": "address",
          "name": "to",
          "type": "address"
        },
        {
          "indexed": true,
          "internalType": "uint256",
          "name": "tokenId",
          "type": "uint256"
        }
      ],
      "name": "Transfer",
      "type": "event"
    },
    {
      "inputs": [
        {
          "internalType": "address",
          "name": "to",
          "type": "address"
        },
        {
          "internalType": "uint256",
          "name": "tokenId",
          "type": "uint256"
        }
      ],
      "name": "approve",
      "outputs": [],
      "stateMutability": "nonpayable",
      "type": "function"
    },
    {
      "inputs": [
        {
          "internalType": "address",
          "name": "owner",
          "type": "address"
        }
      ],
      "name": "balanceOf",
      "outputs": [
        {
          "internalType": "uint256",
          "name": "",
          "type": "uint256"
        }
      ],
      "stateMutability": "view",
      "type": "function"
    },
    {
      "inputs": [
        {
          "internalType": "uint256",
          "name": "tokenId",
          "type": "uint256"
        }
      ],
      "name": "generateCharacter",
      "outputs": [
        {
          "internalType": "string",
          "name": "",
          "type": "string"
        }
      ],
      "stateMutability": "nonpayable",
      "type": "function"
    },
    {
      "inputs": [
        {
          "internalType": "uint256",
          "name": "tokenId",
          "type": "uint256"
        }
      ],
      "name": "getApproved",
      "outputs": [
        {
          "internalType": "address",
          "name": "",
          "type": "address"
        }
      ],
      "stateMutability": "view",
      "type": "function"
    },
    {
      "inputs": [
        {
          "internalType": "uint256",
          "name": "tokenId",
          "type": "uint256"
        }
      ],
      "name": "getLevels",
      "outputs": [
        {
          "internalType": "string",
          "name": "",
          "type": "string"
        }
      ],
      "stateMutability": "view",
      "type": "function"
    },
    {
      "inputs": [
        {
          "internalType": "uint256",
          "name": "tokenId",
          "type": "uint256"
        }
      ],
      "name": "getTokenURI",
      "outputs": [
        {
          "internalType": "string",
          "name": "",
          "type": "string"
        }
      ],
      "stateMutability": "nonpayable",
      "type": "function"
    },
    {
      "inputs": [
        {
          "internalType": "address",
          "name": "owner",
          "type": "address"
        },
        {
          "internalType": "address",
          "name": "operator",
          "type": "address"
        }
      ],
      "name": "isApprovedForAll",
      "outputs": [
        {
          "internalType": "bool",
          "name": "",
          "type": "bool"
        }
      ],
      "stateMutability": "view",
      "type": "function"
    },
    {
      "inputs": [],
      "name": "mint",
      "outputs": [],
      "stateMutability": "nonpayable",
      "type": "function"
    },
    {
      "inputs": [],
      "name": "name",
      "outputs": [
        {
          "internalType": "string",
          "name": "",
          "type": "string"
        }
      ],
      "stateMutability": "view",
      "type": "function"
    },
    {
      "inputs": [
        {
          "internalType": "uint256",
          "name": "tokenId",
          "type": "uint256"
        }
      ],
      "name": "ownerOf",
      "outputs": [
        {
          "internalType": "address",
          "name": "",
          "type": "address"
        }
      ],
      "stateMutability": "view",
      "type": "function"
    },
    {
      "inputs": [
        {
          "internalType": "address",
          "name": "from",
          "type": "address"
        },
        {
          "internalType": "address",
          "name": "to",
          "type": "address"
        },
        {
          "internalType": "uint256",
          "name": "tokenId",
          "type": "uint256"
        }
      ],
      "name": "safeTransferFrom",
      "outputs": [],
      "stateMutability": "nonpayable",
      "type": "function"
    },
    {
      "inputs": [
        {
          "internalType": "address",
          "name": "from",
          "type": "address"
        },
        {
          "internalType": "address",
          "name": "to",
          "type": "address"
        },
        {
          "internalType": "uint256",
          "name": "tokenId",
          "type": "uint256"
        },
        {
          "internalType": "bytes",
          "name": "data",
          "type": "bytes"
        }
      ],
      "name": "safeTransferFrom",
      "outputs": [],
      "stateMutability": "nonpayable",
      "type": "function"
    },
    {
      "inputs": [
        {
          "internalType": "address",
          "name": "operator",
          "type": "address"
        },
        {
          "internalType": "bool",
          "name": "approved",
          "type": "bool"
        }
      ],
      "name": "setApprovalForAll",
      "outputs": [],
      "stateMutability": "nonpayable",
      "type": "function"
    },
    {
      "inputs": [
        {
          "internalType": "bytes4",
          "name": "interfaceId",
          "type": "bytes4"
        }
      ],
      "name": "supportsInterface",
      "outputs": [
        {
          "internalType": "bool",
          "name": "",
          "type": "bool"
        }
      ],
      "stateMutability": "view",
      "type": "function"
    },
    {
      "inputs": [],
      "name": "symbol",
      "outputs": [
        {
          "internalType": "string",
          "name": "",
          "type": "string"
        }
      ],
      "stateMutability": "view",
      "type": "function"
    },
    {
      "inputs": [
        {
          "internalType": "uint256",
          "name": "",
          "type": "uint256"
        }
      ],
      "name": "tokenIdToLevels",
      "outputs": [
        {
          "internalType": "uint256",
          "name": "",
          "type": "uint256"
        }
      ],
      "stateMutability": "view",
      "type": "function"
    },
    {
      "inputs": [
        {
          "internalType": "uint256",
          "name": "tokenId",
          "type": "uint256"
        }
      ],
      "name": "tokenURI",
      "outputs": [
        {
          "internalType": "string",
          "name": "",
          "type": "string"
        }
      ],
      "stateMutability": "view",
      "type": "function"
    },
    {
      "inputs": [
        {
          "internalType": "uint256",
          "name": "tokenId",
          "type": "uint256"
        }
      ],
      "name": "train",
      "outputs": [],
      "stateMutability": "nonpayable",
      "type": "function"
    },
    {
      "inputs": [
        {
          "internalType": "address",
          "name": "from",
          "type": "address"
        },
        {
          "internalType": "address",
          "name": "to",
          "type": "address"
        },
        {
          "internalType": "uint256",
          "name": "tokenId",
          "type": "uint256"
        }
      ],
      "name": "transferFrom",
      "outputs": [],
      "stateMutability": "nonpayable",
      "type": "function"
    }
  ],
  "bytecode": "0x608060405234801561001057600080fd5b506040518060400160405280600781526020017f4a756e654e4654000000000000000000000000000000000000000000000000008152506040518060400160405280600481526020017f4a554e4500000000000000000000000000000000000000000000000000000000815250816000908161008c91906102f4565b50806001908161009c91906102f4565b5050506103c6565b600081519050919050565b7f4e487b7100000000000000000000000000000000000000000000000000000000600052604160045260246000fd5b7f4e487b7100000000000000000000000000000000000000000000000000000000600052602260045260246000fd5b6000600282049050600182168061012557607f821691505b602082108103610138576101376100de565b5b50919050565b60008190508160005260206000209050919050565b60006020601f8301049050919050565b600082821b905092915050565b6000600883026101a07fffffffffffffffffffffffffffffffffffffffffffffffffffffffffffffffff82610163565b6101aa8683610163565b95508019841693508086168417925050509392505050565b6000819050919050565b6000819050919050565b60006101f16101ec6101e7846101c2565b6101cc565b6101c2565b9050919050565b6000819050919050565b61020b836101d6565b61021f610217826101f8565b848454610170565b825550505050565b600090565b610234610227565b61023f818484610202565b505050565b5b818110156102635761025860008261022c565b600181019050610245565b5050565b601f8211156102a8576102798161013e565b61028284610153565b81016020851015610291578190505b6102a561029d85610153565b830182610244565b50505b505050565b600082821c905092915050565b60006102cb600019846008026102ad565b1980831691505092915050565b60006102e483836102ba565b9150826002028217905092915050565b6102fd826100a4565b67ffffffffffffffff811115610316576103156100af565b5b610320825461010d565b61032b828285610267565b600060209050601f83116001811461035e576000841561034c578287015190505b61035685826102d8565b8655506103be565b601f19841661036c8661013e565b60005b828110156103945784890151825560018201915060208501945060208101905061036f565b868310156103b157848901516103ad601f8916826102ba565b8355505b6001600288020188555050505b505050505050565b61322d806103d56000396000f3fe608060405234801561001057600080fd5b50600436106101215760003560e01c806342842e0e116100ad578063b88d4fde11610071578063b88d4fde14610318578063c6a4342f14610334578063c87b56dd14610364578063e985e9c514610394578063f43785f9146103c457610121565b806342842e0e146102625780636352211e1461027e57806370a08231146102ae57806395d89b41146102de578063a22cb465146102fc57610121565b80630daefed5116100f45780630daefed5146101c05780631249c58b146101f057806323b872dd146101fa578063368004ed146102165780633bb3a24d1461023257610121565b806301ffc9a71461012657806306fdde0314610156578063081812fc14610174578063095ea7b3146101a4575b600080fd5b610140600480360381019061013b9190611d8f565b6103f4565b60405161014d9190611dd7565b60405180910390f35b61015e610406565b60405161016b9190611e82565b60405180910390f35b61018e60048036038101906101899190611eda565b610498565b60405161019b9190611f48565b60405180910390f35b6101be60048036038101906101b99190611f8f565b6104b4565b005b6101da60048036038101906101d59190611eda565b6104ca565b6040516101e79190611e82565b60405180910390f35b6101f8610528565b005b610214600480360381019061020f9190611fcf565b61057f565b005b610230600480360381019061022b9190611eda565b610681565b005b61024c60048036038101906102479190611eda565b6107c0565b6040516102599190611e82565b60405180910390f35b61027c60048036038101906102779190611fcf565b610828565b005b61029860048036038101906102939190611eda565b610848565b6040516102a59190611f48565b60405180910390f35b6102c860048036038101906102c39190612022565b61085a565b6040516102d5919061205e565b60405180910390f35b6102e6610914565b6040516102f39190611e82565b60405180910390f35b610316600480360381019061031191906120a5565b6109a6565b005b610332600480360381019061032d919061221a565b6109bc565b005b61034e60048036038101906103499190611eda565b6109e1565b60405161035b919061205e565b60405180910390f35b61037e60048036038101906103799190611eda565b6109f9565b60405161038b9190611e82565b60405180910390f35b6103ae60048036038101906103a9919061229d565b610a0b565b6040516103bb9190611dd7565b60405180910390f35b6103de60048036038101906103d99190611eda565b610a9f565b6040516103eb9190611e82565b60405180910390f35b60006103ff82610aca565b9050919050565b6060600080546104159061230c565b80601f01602080910402602001604051908101604052809291908181526020018280546104419061230c565b801561048e5780601f106104635761010080835404028352916020019161048e565b820191906000526020600020905b81548152906001019060200180831161047157829003601f168201915b5050505050905090565b60006104a382610b2b565b506104ad82610bb3565b9050919050565b6104c682826104c1610bf0565b610bf8565b5050565b606060006104d783610a9f565b6040516020016104e791906127a1565b604051602081830303815290604052905061050181610c0a565b6040516020016105119190612872565b604051602081830303815290604052915050919050565b6007600081548092919061053b906128c3565b9190505550600060075490506105513382610c37565b6000600860008381526020019081526020016000208190555061057c81610577836107c0565b610c55565b50565b600073ffffffffffffffffffffffffffffffffffffffff168273ffffffffffffffffffffffffffffffffffffffff16036105f15760006040517f64a0ae920000000000000000000000000000000000000000000000000000000081526004016105e89190611f48565b60405180910390fd5b60006106058383610600610bf0565b610cb1565b90508373ffffffffffffffffffffffffffffffffffffffff168173ffffffffffffffffffffffffffffffffffffffff161461067b578382826040517f64283d7b0000000000000000000000000000000000000000000000000000000081526004016106729392919061290b565b60405180910390fd5b50505050565b600073ffffffffffffffffffffffffffffffffffffffff166106a282610ecb565b73ffffffffffffffffffffffffffffffffffffffff16036106f8576040517f08c379a00000000000000000000000000000000000000000000000000000000081526004016106ef9061298e565b60405180910390fd5b3373ffffffffffffffffffffffffffffffffffffffff1661071882610ecb565b73ffffffffffffffffffffffffffffffffffffffff161461076e576040517f08c379a000000000000000000000000000000000000000000000000000000000815260040161076590612a20565b60405180910390fd5b6000600860008381526020019081526020016000205490506001816107939190612a40565b60086000848152602001908152602001600020819055506107bc826107b7846107c0565b610c55565b5050565b606060006107cd83610f08565b6107d6846104ca565b6040516020016107e7929190612c88565b604051602081830303815290604052905061080181610c0a565b6040516020016108119190612d45565b604051602081830303815290604052915050919050565b610843838383604051806020016040528060008152506109bc565b505050565b600061085382610b2b565b9050919050565b60008073ffffffffffffffffffffffffffffffffffffffff168273ffffffffffffffffffffffffffffffffffffffff16036108cd5760006040517f89c62b640000000000000000000000000000000000000000000000000000000081526004016108c49190611f48565b60405180910390fd5b600360008373ffffffffffffffffffffffffffffffffffffffff1673ffffffffffffffffffffffffffffffffffffffff168152602001908152602001600020549050919050565b6060600180546109239061230c565b80601f016020809104026020016040519081016040528092919081815260200182805461094f9061230c565b801561099c5780601f106109715761010080835404028352916020019161099c565b820191906000526020600020905b81548152906001019060200180831161097f57829003601f168201915b5050505050905090565b6109b86109b1610bf0565b8383610fd6565b5050565b6109c784848461057f565b6109db6109d2610bf0565b85858585611145565b50505050565b60086020528060005260406000206000915090505481565b6060610a04826112f6565b9050919050565b6000600560008473ffffffffffffffffffffffffffffffffffffffff1673ffffffffffffffffffffffffffffffffffffffff16815260200190815260200160002060008373ffffffffffffffffffffffffffffffffffffffff1673ffffffffffffffffffffffffffffffffffffffff16815260200190815260200160002060009054906101000a900460ff16905092915050565b6060600060086000848152602001908152602001600020549050610ac281610f08565b915050919050565b6000634906490660e01b7bffffffffffffffffffffffffffffffffffffffffffffffffffffffff1916827bffffffffffffffffffffffffffffffffffffffffffffffffffffffff19161480610b245750610b2382611409565b5b9050919050565b600080610b3783610ecb565b9050600073ffffffffffffffffffffffffffffffffffffffff168173ffffffffffffffffffffffffffffffffffffffff1603610baa57826040517f7e273289000000000000000000000000000000000000000000000000000000008152600401610ba1919061205e565b60405180910390fd5b80915050919050565b60006004600083815260200190815260200160002060009054906101000a900473ffffffffffffffffffffffffffffffffffffffff169050919050565b600033905090565b610c0583838360016114eb565b505050565b6060610c30826040518060600160405280604081526020016131b86040913960016116b0565b9050919050565b610c51828260405180602001604052806000815250611844565b5050565b80600660008481526020019081526020016000209081610c759190612f13565b507ff8e1a15aba9398e019f0b49df1a4fde98ee17ae345cb5f6b5e2c27f5033e8ce782604051610ca5919061205e565b60405180910390a15050565b600080610cbd84610ecb565b9050600073ffffffffffffffffffffffffffffffffffffffff168373ffffffffffffffffffffffffffffffffffffffff1614610cff57610cfe818486611868565b5b600073ffffffffffffffffffffffffffffffffffffffff168173ffffffffffffffffffffffffffffffffffffffff1614610d9057610d416000856000806114eb565b6001600360008373ffffffffffffffffffffffffffffffffffffffff1673ffffffffffffffffffffffffffffffffffffffff168152602001908152602001600020600082825403925050819055505b600073ffffffffffffffffffffffffffffffffffffffff168573ffffffffffffffffffffffffffffffffffffffff1614610e13576001600360008773ffffffffffffffffffffffffffffffffffffffff1673ffffffffffffffffffffffffffffffffffffffff168152602001908152602001600020600082825401925050819055505b846002600086815260200190815260200160002060006101000a81548173ffffffffffffffffffffffffffffffffffffffff021916908373ffffffffffffffffffffffffffffffffffffffff160217905550838573ffffffffffffffffffffffffffffffffffffffff168273ffffffffffffffffffffffffffffffffffffffff167fddf252ad1be2c89b69c2b068fc378daa952ba7f163c4a11628f55a4df523b3ef60405160405180910390a4809150509392505050565b60006002600083815260200190815260200160002060009054906101000a900473ffffffffffffffffffffffffffffffffffffffff169050919050565b606060006001610f178461192c565b01905060008167ffffffffffffffff811115610f3657610f356120ef565b5b6040519080825280601f01601f191660200182016040528015610f685781602001600182028036833780820191505090505b509050600082602001820190505b600115610fcb578080600190039150507f3031323334353637383961626364656600000000000000000000000000000000600a86061a8153600a8581610fbf57610fbe612fe5565b5b04945060008503610f76575b819350505050919050565b600073ffffffffffffffffffffffffffffffffffffffff168273ffffffffffffffffffffffffffffffffffffffff160361104757816040517f5b08ba1800000000000000000000000000000000000000000000000000000000815260040161103e9190611f48565b60405180910390fd5b80600560008573ffffffffffffffffffffffffffffffffffffffff1673ffffffffffffffffffffffffffffffffffffffff16815260200190815260200160002060008473ffffffffffffffffffffffffffffffffffffffff1673ffffffffffffffffffffffffffffffffffffffff16815260200190815260200160002060006101000a81548160ff0219169083151502179055508173ffffffffffffffffffffffffffffffffffffffff168373ffffffffffffffffffffffffffffffffffffffff167f17307eab39ab6107e8899845ad3d59bd9653f200f220920489ca2b5937696c31836040516111389190611dd7565b60405180910390a3505050565b60008373ffffffffffffffffffffffffffffffffffffffff163b11156112ef578273ffffffffffffffffffffffffffffffffffffffff1663150b7a02868685856040518563ffffffff1660e01b81526004016111a49493929190613069565b6020604051808303816000875af19250505080156111e057506040513d601f19601f820116820180604052508101906111dd91906130ca565b60015b611264573d8060008114611210576040519150601f19603f3d011682016040523d82523d6000602084013e611215565b606091505b50600081510361125c57836040517f64a0ae920000000000000000000000000000000000000000000000000000000081526004016112539190611f48565b60405180910390fd5b805181602001fd5b63150b7a0260e01b7bffffffffffffffffffffffffffffffffffffffffffffffffffffffff1916817bffffffffffffffffffffffffffffffffffffffffffffffffffffffff1916146112ed57836040517f64a0ae920000000000000000000000000000000000000000000000000000000081526004016112e49190611f48565b60405180910390fd5b505b5050505050565b606061130182610b2b565b5060006006600084815260200190815260200160002080546113229061230c565b80601f016020809104026020016040519081016040528092919081815260200182805461134e9061230c565b801561139b5780601f106113705761010080835404028352916020019161139b565b820191906000526020600020905b81548152906001019060200180831161137e57829003601f168201915b5050505050905060006113ac611a7f565b905060008151036113c1578192505050611404565b6000825111156113f65780826040516020016113de9291906130f7565b60405160208183030381529060405292505050611404565b6113ff84611a96565b925050505b919050565b60007f80ac58cd000000000000000000000000000000000000000000000000000000007bffffffffffffffffffffffffffffffffffffffffffffffffffffffff1916827bffffffffffffffffffffffffffffffffffffffffffffffffffffffff191614806114d457507f5b5e139f000000000000000000000000000000000000000000000000000000007bffffffffffffffffffffffffffffffffffffffffffffffffffffffff1916827bffffffffffffffffffffffffffffffffffffffffffffffffffffffff1916145b806114e457506114e382611aff565b5b9050919050565b80806115245750600073ffffffffffffffffffffffffffffffffffffffff168273ffffffffffffffffffffffffffffffffffffffff1614155b1561165857600061153484610b2b565b9050600073ffffffffffffffffffffffffffffffffffffffff168373ffffffffffffffffffffffffffffffffffffffff161415801561159f57508273ffffffffffffffffffffffffffffffffffffffff168173ffffffffffffffffffffffffffffffffffffffff1614155b80156115b257506115b08184610a0b565b155b156115f457826040517fa9fbf51f0000000000000000000000000000000000000000000000000000000081526004016115eb9190611f48565b60405180910390fd5b811561165657838573ffffffffffffffffffffffffffffffffffffffff168273ffffffffffffffffffffffffffffffffffffffff167f8c5be1e5ebec7d5bd14f71427d1e84f3dd0314c0f7b2291e5b200ac8c7c3b92560405160405180910390a45b505b836004600085815260200190815260200160002060006101000a81548173ffffffffffffffffffffffffffffffffffffffff021916908373ffffffffffffffffffffffffffffffffffffffff16021790555050505050565b606060008451036116d25760405180602001604052806000815250905061183d565b6000826117045760036002865160046116eb919061311b565b6116f59190612a40565b6116ff919061315d565b61172b565b6003600286516117149190612a40565b61171e919061315d565b600461172a919061311b565b5b905060008167ffffffffffffffff811115611749576117486120ef565b5b6040519080825280601f01601f19166020018201604052801561177b5781602001600182028036833780820191505090505b50905060018501602082018788518901602081018051600082525b828410156117f1576003840193508351603f8160121c168701518653600186019550603f81600c1c168701518653600186019550603f8160061c168701518653600186019550603f8116870151865360018601955050611796565b80825289156118315760038c51066001811461181457600281146118275761182f565b603d6001870353603d600287035361182f565b603d60018703535b505b50505050505080925050505b9392505050565b61184e8383611b69565b611863611859610bf0565b6000858585611145565b505050565b611873838383611c62565b61192757600073ffffffffffffffffffffffffffffffffffffffff168373ffffffffffffffffffffffffffffffffffffffff16036118e857806040517f7e2732890000000000000000000000000000000000000000000000000000000081526004016118df919061205e565b60405180910390fd5b81816040517f177e802f00000000000000000000000000000000000000000000000000000000815260040161191e92919061318e565b60405180910390fd5b505050565b600080600090507a184f03e93ff9f4daa797ed6e38ed64bf6a1f010000000000000000831061198a577a184f03e93ff9f4daa797ed6e38ed64bf6a1f01000000000000000083816119805761197f612fe5565b5b0492506040810190505b6d04ee2d6d415b85acef810000000083106119c7576d04ee2d6d415b85acef810000000083816119bd576119bc612fe5565b5b0492506020810190505b662386f26fc1000083106119f657662386f26fc1000083816119ec576119eb612fe5565b5b0492506010810190505b6305f5e1008310611a1f576305f5e1008381611a1557611a14612fe5565b5b0492506008810190505b6127108310611a44576127108381611a3a57611a39612fe5565b5b0492506004810190505b60648310611a675760648381611a5d57611a5c612fe5565b5b0492506002810190505b600a8310611a76576001810190505b80915050919050565b606060405180602001604052806000815250905090565b6060611aa182610b2b565b506000611aac611a7f565b90506000815111611acc5760405180602001604052806000815250611af7565b80611ad684610f08565b604051602001611ae79291906130f7565b6040516020818303038152906040525b915050919050565b60007f01ffc9a7000000000000000000000000000000000000000000000000000000007bffffffffffffffffffffffffffffffffffffffffffffffffffffffff1916827bffffffffffffffffffffffffffffffffffffffffffffffffffffffff1916149050919050565b600073ffffffffffffffffffffffffffffffffffffffff168273ffffffffffffffffffffffffffffffffffffffff1603611bdb5760006040517f64a0ae92000000000000000000000000000000000000000000000000000000008152600401611bd29190611f48565b60405180910390fd5b6000611be983836000610cb1565b9050600073ffffffffffffffffffffffffffffffffffffffff168173ffffffffffffffffffffffffffffffffffffffff1614611c5d5760006040517f73c6ac6e000000000000000000000000000000000000000000000000000000008152600401611c549190611f48565b60405180910390fd5b505050565b60008073ffffffffffffffffffffffffffffffffffffffff168373ffffffffffffffffffffffffffffffffffffffff1614158015611d1a57508273ffffffffffffffffffffffffffffffffffffffff168473ffffffffffffffffffffffffffffffffffffffff161480611cdb5750611cda8484610a0b565b5b80611d1957508273ffffffffffffffffffffffffffffffffffffffff16611d0183610bb3565b73ffffffffffffffffffffffffffffffffffffffff16145b5b90509392505050565b6000604051905090565b600080fd5b600080fd5b60007fffffffff0000000000000000000000000000000000000000000000000000000082169050919050565b611d6c81611d37565b8114611d7757600080fd5b50565b600081359050611d8981611d63565b92915050565b600060208284031215611da557611da4611d2d565b5b6000611db384828501611d7a565b91505092915050565b60008115159050919050565b611dd181611dbc565b82525050565b6000602082019050611dec6000830184611dc8565b92915050565b600081519050919050565b600082825260208201905092915050565b60005b83811015611e2c578082015181840152602081019050611e11565b60008484015250505050565b6000601f19601f8301169050919050565b6000611e5482611df2565b611e5e8185611dfd565b9350611e6e818560208601611e0e565b611e7781611e38565b840191505092915050565b60006020820190508181036000830152611e9c8184611e49565b905092915050565b6000819050919050565b611eb781611ea4565b8114611ec257600080fd5b50565b600081359050611ed481611eae565b92915050565b600060208284031215611ef057611eef611d2d565b5b6000611efe84828501611ec5565b91505092915050565b600073ffffffffffffffffffffffffffffffffffffffff82169050919050565b6000611f3282611f07565b9050919050565b611f4281611f27565b82525050565b6000602082019050611f5d6000830184611f39565b92915050565b611f6c81611f27565b8114611f7757600080fd5b50565b600081359050611f8981611f63565b92915050565b60008060408385031215611fa657611fa5611d2d565b5b6000611fb485828601611f7a565b9250506020611fc585828601611ec5565b9150509250929050565b600080600060608486031215611fe857611fe7611d2d565b5b6000611ff686828701611f7a565b935050602061200786828701611f7a565b925050604061201886828701611ec5565b9150509250925092565b60006020828403121561203857612037611d2d565b5b600061204684828501611f7a565b91505092915050565b61205881611ea4565b82525050565b6000602082019050612073600083018461204f565b92915050565b61208281611dbc565b811461208d57600080fd5b50565b60008135905061209f81612079565b92915050565b600080604083850312156120bc576120bb611d2d565b5b60006120ca85828601611f7a565b92505060206120db85828601612090565b9150509250929050565b600080fd5b600080fd5b7f4e487b7100000000000000000000000000000000000000000000000000000000600052604160045260246000fd5b61212782611e38565b810181811067ffffffffffffffff82111715612146576121456120ef565b5b80604052505050565b6000612159611d23565b9050612165828261211e565b919050565b600067ffffffffffffffff821115612185576121846120ef565b5b61218e82611e38565b9050602081019050919050565b82818337600083830152505050565b60006121bd6121b88461216a565b61214f565b9050828152602081018484840111156121d9576121d86120ea565b5b6121e484828561219b565b509392505050565b600082601f830112612201576122006120e5565b5b81356122118482602086016121aa565b91505092915050565b6000806000806080858703121561223457612233611d2d565b5b600061224287828801611f7a565b945050602061225387828801611f7a565b935050604061226487828801611ec5565b925050606085013567ffffffffffffffff81111561228557612284611d32565b5b612291878288016121ec565b91505092959194509250565b600080604083850312156122b4576122b3611d2d565b5b60006122c285828601611f7a565b92505060206122d385828601611f7a565b9150509250929050565b7f4e487b7100000000000000000000000000000000000000000000000000000000600052602260045260246000fd5b6000600282049050600182168061232457607f821691505b602082108103612337576123366122dd565b5b50919050565b600081905092915050565b7f3c73766720786d6c6e733d22687474703a2f2f7777772e77332e6f72672f323060008201527f30302f73766722207072657365727665417370656374526174696f3d22784d6960208201527f6e594d696e206d656574222076696577426f783d22302030203335302033353060408201527f223e000000000000000000000000000000000000000000000000000000000000606082015250565b60006123f060628361233d565b91506123fb82612348565b606282019050919050565b7f3c7374796c653e2e62617365207b2066696c6c3a2077686974653b20666f6e7460008201527f2d66616d696c793a2073657269663b20666f6e742d73697a653a20313470783b60208201527f207d3c2f7374796c653e00000000000000000000000000000000000000000000604082015250565b6000612488604a8361233d565b915061249382612406565b604a82019050919050565b7f3c726563742077696474683d223130302522206865696768743d22313030252260008201527f2066696c6c3d22626c61636b22202f3e00000000000000000000000000000000602082015250565b60006124fa60308361233d565b91506125058261249e565b603082019050919050565b7f3c7465787420783d223530252220793d223430252220636c6173733d2262617360008201527f652220646f6d696e616e742d626173656c696e653d226d6964646c652220746560208201527f78742d616e63686f723d226d6964646c65223e00000000000000000000000000604082015250565b600061259260538361233d565b915061259d82612510565b605382019050919050565b7f4a756e6500000000000000000000000000000000000000000000000000000000600082015250565b60006125de60048361233d565b91506125e9826125a8565b600482019050919050565b7f3c2f746578743e00000000000000000000000000000000000000000000000000600082015250565b600061262a60078361233d565b9150612635826125f4565b600782019050919050565b7f3c7465787420783d223530252220793d223530252220636c6173733d2262617360008201527f652220646f6d696e616e742d626173656c696e653d226d6964646c652220746560208201527f78742d616e63686f723d226d6964646c65223e00000000000000000000000000604082015250565b60006126c260538361233d565b91506126cd82612640565b605382019050919050565b7f4c6576656c3a2000000000000000000000000000000000000000000000000000600082015250565b600061270e60078361233d565b9150612719826126d8565b600782019050919050565b600061272f82611df2565b612739818561233d565b9350612749818560208601611e0e565b80840191505092915050565b7f3c2f7376673e0000000000000000000000000000000000000000000000000000600082015250565b600061278b60068361233d565b915061279682612755565b600682019050919050565b60006127ac826123e3565b91506127b78261247b565b91506127c2826124ed565b91506127cd82612585565b91506127d8826125d1565b91506127e38261261d565b91506127ee826126b5565b91506127f982612701565b91506128058284612724565b91506128108261261d565b915061281b8261277e565b915081905092915050565b7f646174613a696d6167652f7376672b786d6c3b6261736536342c000000000000600082015250565b600061285c601a8361233d565b915061286782612826565b601a82019050919050565b600061287d8261284f565b91506128898284612724565b915081905092915050565b7f4e487b7100000000000000000000000000000000000000000000000000000000600052601160045260246000fd5b60006128ce82611ea4565b91507fffffffffffffffffffffffffffffffffffffffffffffffffffffffffffffffff8203612900576128ff612894565b5b600182019050919050565b60006060820190506129206000830186611f39565b61292d602083018561204f565b61293a6040830184611f39565b949350505050565b7f506c656173652075736520616e206578697374696e6720746f6b656e00000000600082015250565b6000612978601c83611dfd565b915061298382612942565b602082019050919050565b600060208201905081810360008301526129a78161296b565b9050919050565b7f596f75206d757374206f776e207468697320746f6b656e20746f20747261696e60008201527f2069740000000000000000000000000000000000000000000000000000000000602082015250565b6000612a0a602383611dfd565b9150612a15826129ae565b604082019050919050565b60006020820190508181036000830152612a39816129fd565b9050919050565b6000612a4b82611ea4565b9150612a5683611ea4565b9250828201905080821115612a6e57612a6d612894565b5b92915050565b7f7b00000000000000000000000000000000000000000000000000000000000000600082015250565b6000612aaa60018361233d565b9150612ab582612a74565b600182019050919050565b7f226e616d65223a20224a756e65204e4654202300000000000000000000000000600082015250565b6000612af660138361233d565b9150612b0182612ac0565b601382019050919050565b7f222c000000000000000000000000000000000000000000000000000000000000600082015250565b6000612b4260028361233d565b9150612b4d82612b0c565b600282019050919050565b7f226465736372697074696f6e223a2022497473206d79204e4654222c00000000600082015250565b6000612b8e601c8361233d565b9150612b9982612b58565b601c82019050919050565b7f22696d616765223a202200000000000000000000000000000000000000000000600082015250565b6000612bda600a8361233d565b9150612be582612ba4565b600a82019050919050565b7f2200000000000000000000000000000000000000000000000000000000000000600082015250565b6000612c2660018361233d565b9150612c3182612bf0565b600182019050919050565b7f7d00000000000000000000000000000000000000000000000000000000000000600082015250565b6000612c7260018361233d565b9150612c7d82612c3c565b600182019050919050565b6000612c9382612a9d565b9150612c9e82612ae9565b9150612caa8285612724565b9150612cb582612b35565b9150612cc082612b81565b9150612ccb82612bcd565b9150612cd78284612724565b9150612ce282612c19565b9150612ced82612c65565b91508190509392505050565b7f646174613a6170706c69636174696f6e2f6a736f6e3b6261736536342c000000600082015250565b6000612d2f601d8361233d565b9150612d3a82612cf9565b601d82019050919050565b6000612d5082612d22565b9150612d5c8284612724565b915081905092915050565b60008190508160005260206000209050919050565b60006020601f8301049050919050565b600082821b905092915050565b600060088302612dc97fffffffffffffffffffffffffffffffffffffffffffffffffffffffffffffffff82612d8c565b612dd38683612d8c565b95508019841693508086168417925050509392505050565b6000819050919050565b6000612e10612e0b612e0684611ea4565b612deb565b611ea4565b9050919050565b6000819050919050565b612e2a83612df5565b612e3e612e3682612e17565b848454612d99565b825550505050565b600090565b612e53612e46565b612e5e818484612e21565b505050565b5b81811015612e8257612e77600082612e4b565b600181019050612e64565b5050565b601f821115612ec757612e9881612d67565b612ea184612d7c565b81016020851015612eb0578190505b612ec4612ebc85612d7c565b830182612e63565b50505b505050565b600082821c905092915050565b6000612eea60001984600802612ecc565b1980831691505092915050565b6000612f038383612ed9565b9150826002028217905092915050565b612f1c82611df2565b67ffffffffffffffff811115612f3557612f346120ef565b5b612f3f825461230c565b612f4a828285612e86565b600060209050601f831160018114612f7d5760008415612f6b578287015190505b612f758582612ef7565b865550612fdd565b601f198416612f8b86612d67565b60005b82811015612fb357848901518255600182019150602085019450602081019050612f8e565b86831015612fd05784890151612fcc601f891682612ed9565b8355505b6001600288020188555050505b505050505050565b7f4e487b7100000000000000000000000000000000000000000000000000000000600052601260045260246000fd5b600081519050919050565b600082825260208201905092915050565b600061303b82613014565b613045818561301f565b9350613055818560208601611e0e565b61305e81611e38565b840191505092915050565b600060808201905061307e6000830187611f39565b61308b6020830186611f39565b613098604083018561204f565b81810360608301526130aa8184613030565b905095945050505050565b6000815190506130c481611d63565b92915050565b6000602082840312156130e0576130df611d2d565b5b60006130ee848285016130b5565b91505092915050565b60006131038285612724565b915061310f8284612724565b91508190509392505050565b600061312682611ea4565b915061313183611ea4565b925082820261313f81611ea4565b9150828204841483151761315657613155612894565b5b5092915050565b600061316882611ea4565b915061317383611ea4565b92508261318357613182612fe5565b5b828204905092915050565b60006040820190506131a36000830185611f39565b6131b0602083018461204f565b939250505056fe4142434445464748494a4b4c4d4e4f505152535455565758595a6162636465666768696a6b6c6d6e6f707172737475767778797a303132333435363738392b2fa26469706673582212204f01ac46806d42c678c43fda651ca9a2c63ae22ab4d289655ed0a813ef1af25f64736f6c634300081c0033",
  "linkReferences": {},
  "deployedLinkReferences": {}
}